8=FIX.4.4|9=76|35=A|34=1|49=HOTCOPPER|52=20141002-12:33:06.209|56=NSXFIX|98=0|108=30|141=Y|10=184|