8=FIX.4.4|9=76|35=A|34=1|49=HOTCOPPER|52=20141003-00:58:23.231|56=NSXFIX|98=0|108=30|141=Y|10=183|8=FIX.4.4|9=97|35=BE|34=2|49=HOTCOPPER|52=20141003-00:58:24.403|56=NSXFIX|553=hot_ven1|554=welcome2|923=0|924=1|10=208|8=FIX.4.4|9=58|35=0|34=3|49=HOTCOPPER|52=20141003-00:58:55.217|56=NSXFIX|10=107|8=FIX.4.4|9=58|35=0|34=4|49=HOTCOPPER|52=20141003-00:59:26.216|56=NSXFIX|10=106|8=FIX.4.4|9=58|35=0|34=5|49=HOTCOPPER|52=20141003-00:59:56.216|56=NSXFIX|10=110|8=FIX.4.4|9=58|35=0|34=6|49=HOTCOPPER|52=20141003-01:00:26.216|56=NSXFIX|10=095|8=FIX.4.4|9=58|35=0|34=7|49=HOTCOPPER|52=20141003-01:00:56.216|56=NSXFIX|10=099|8=FIX.4.4|9=58|35=0|34=8|49=HOTCOPPER|52=20141003-01:01:26.216|56=NSXFIX|10=098|8=FIX.4.4|9=58|35=0|34=9|49=HOTCOPPER|52=20141003-01:01:56.216|56=NSXFIX|10=102|8=FIX.4.4|9=59|35=0|34=10|49=HOTCOPPER|52=20141003-01:02:26.216|56=NSXFIX|10=141|8=FIX.4.4|9=59|35=0|34=11|49=HOTCOPPER|52=20141003-01:02:56.216|56=NSXFIX|10=145|8=FIX.4.4|9=59|35=0|34=12|49=HOTCOPPER|52=20141003-01:03:26.216|56=NSXFIX|10=144|8=FIX.4.4|9=59|35=0|34=13|49=HOTCOPPER|52=20141003-01:03:56.216|56=NSXFIX|10=148|8=FIX.4.4|9=59|35=0|34=14|49=HOTCOPPER|52=20141003-01:04:26.216|56=NSXFIX|10=147|8=FIX.4.4|9=59|35=0|34=15|49=HOTCOPPER|52=20141003-01:04:56.216|56=NSXFIX|10=151|8=FIX.4.4|9=59|35=0|34=16|49=HOTCOPPER|52=20141003-01:05:26.216|56=NSXFIX|10=150|8=FIX.4.4|9=59|35=0|34=17|49=HOTCOPPER|52=20141003-01:05:56.216|56=NSXFIX|10=154|8=FIX.4.4|9=59|35=0|34=18|49=HOTCOPPER|52=20141003-01:06:26.216|56=NSXFIX|10=153|8=FIX.4.4|9=59|35=0|34=19|49=HOTCOPPER|52=20141003-01:06:56.216|56=NSXFIX|10=157|8=FIX.4.4|9=59|35=0|34=20|49=HOTCOPPER|52=20141003-01:07:26.216|56=NSXFIX|10=147|8=FIX.4.4|9=59|35=0|34=21|49=HOTCOPPER|52=20141003-01:07:56.216|56=NSXFIX|10=151|8=FIX.4.4|9=59|35=0|34=22|49=HOTCOPPER|52=20141003-01:08:26.216|56=NSXFIX|10=150|8=FIX.4.4|9=59|35=0|34=23|49=HOTCOPPER|52=20141003-01:08:56.216|56=NSXFIX|10=154|8=FIX.4.4|9=59|35=0|34=24|49=HOTCOPPER|52=20141003-01:09:26.216|56=NSXFIX|10=153|8=FIX.4.4|9=59|35=0|34=25|49=HOTCOPPER|52=20141003-01:09:56.216|56=NSXFIX|10=157|8=FIX.4.4|9=59|35=0|34=26|49=HOTCOPPER|52=20141003-01:10:26.216|56=NSXFIX|10=147|8=FIX.4.4|9=59|35=0|34=27|49=HOTCOPPER|52=20141003-01:10:56.216|56=NSXFIX|10=151|8=FIX.4.4|9=59|35=0|34=28|49=HOTCOPPER|52=20141003-01:11:26.216|56=NSXFIX|10=150|8=FIX.4.4|9=59|35=0|34=29|49=HOTCOPPER|52=20141003-01:11:56.216|56=NSXFIX|10=154|8=FIX.4.4|9=59|35=0|34=30|49=HOTCOPPER|52=20141003-01:12:26.216|56=NSXFIX|10=144|